:020000040800F2
:10000000001100209D010008553F0008193100082B
:10001000E93D0008E5090008654E00080000000001
:10002000000000000000000000000000574500082C
:10003000990A0008000000005545000859450008CD
:10004000B7010008B7010008B7010008B7010008B0
:10005000B7010008B7010008B7010008B7010008A0
:10006000B7010008B7010008B7010008B701000890
:10007000E9090008B7010008B7010008B701000846
:10008000B7010008B7010008B7010008B701000870
:10009000B7010008B7010008B7010008B701000860
:1000A00005460008394600082D460008214600088C
:1000B00055460008614600086D460008B701000873
:1000C000B7010008B7010008B7010008B701000830
:1000D000B7010008B7010008B7010008E54D0008A6
:1000E000B7010008B7010008B7010008B701000810
:1000F00079460008B7010008B7010008B7010008F9
:10010000B7010008B7010008B7010008B7010008EF
:10011000B7010008B7010008B7010008B7010008DF
:10012000B7010008B7010008B7010008B7010008CF
:10013000B7010008B7010008B7010008B7010008BF
:10014000B7010008B7010008B7010008B7010008AF
:10015000B7010008B7010008B7010008B70100089F
:10016000B7010008B7010008B7010008B70100088F
:10017000B7010008B7010008B7010008000000003F
:10018000B7010008B7010008DFF80CD000F058FBF9
:1001900000480047815900080011002006488047A8
:1001A00006480047FEE7FEE7FEE7FEE7FEE7FEE75C
:1001B000FEE7FEE7FEE7FEE7F545000889010008D7
:1001C0002DE9F05F0546002092469B46884606468C
:1001D000814640241BE0284641464746224600F01F
:1001E000BEF953465A46C01A914110D311461846DB
:1001F000224600F0A5F92D1A67EB01084F4622466A
:100200000120002100F09CF917EB00094E41201E4F
:10021000A4F10104DFDC484631462A464346BDE8E6
:10022000F09F40EA01039B0703D009E008C9121FB1
:1002300008C0042AFAD203E011F8013B00F8013BA0
:10024000521EF9D27047D2B201E000F8012B491ECC
:10025000FBD270470022F6E710B513460A46044663
:100260001946FFF7F0FF204610BD30B504460020C8
:10027000034600E05B1C934203D2E05CCD5C401B74
:10028000F8D030BD2DE9FE4F804681EA0300C00F53
:100290000C46009021F0004123F00045B8EB02002D
:1002A000A94105D24046214690461C460B460246CF
:1002B00023F00040104347D0270DC7F30A00C3F3D3
:1002C0000A510290401A019040286BDAC3F31300E0
:1002D00040F4801B0098924620B10023D2EB030A21
:1002E00063EB0B0B01985946C0F14002504600F0F9
:1002F00027F906460D4650465946019A00F03FF947
:1003000010EB08006141002487EA115284EAE77388
:100310001A4340D0009A62B3019A012A4FEA075269
:1003200015DC001B61EB02014FF0004202EA0752AC
:10033000CDE90042001C41F5801132462B4600F009
:1003400076F903B0BDE8F08F40462146F9E7001B7F
:1003500061EB0201001C41F5801300185B4120187D
:10036000A2F5001747EB030140EAD570B6196D41BD
:1003700011E06D084FEA360645EAC0754FEA0752AC
:10038000001B61EB0201001C41F5801149084FEA96
:1003900030000019514132462B4603B0BDE8F04F02
:1003A00000F036B90098012240000023D0EB020291
:1003B00063EBE073009821464FEAE074B8EB00006D
:1003C00061EB0401E9E783F000435BE781F0004162
:1003D00058E72DE9FE4F81EA030404F0004421F0C0
:1003E000004100944FF0000B23F0004350EA010459
:1003F0005ED052EA03045BD0C3F30A54C1F30A553A
:100400002C44A4F2F3340194A0FB0254C1F3130171
:1004100041F48011C3F3130343F4801301FB02443E
:1004200000FB034E840A970A44EA815447EA835743
:10043000A4FB076802958D0A05FB07854FEA932CFC
:1004400004FB0C542705029D4FEA065847EA16376D
:10045000B5EB08056EEB070C870E920E47EA811785
:1004600042EA8312A7FB0201B6EB0B0164EB000426
:100470002B0D43EA0C335E1844EB1C50DA46514610
:10048000E7FB0201C5F313044FEA0B3343EA1453AD
:100490004FEA0432019C43EA0603A4F10C040294DF
:1004A000009CCDE900B400F0C2F803B0BDE8F08FC5
:1004B00000200146F9E700F0004230F000400AD089
:1004C000C10D01F56071C0F3160042EA0151C20886
:1004D00040071143704700200146704701F0004378
:1004E00030B421F0004150EA010206D00A0DA2F515
:1004F0006072C1F31301002A02DC30BC0020704797
:10050000440F44EAC104C100E01830BC00EBC25003
:1005100000F047B830B50B460146002020220124E8
:1005200009E021FA02F59D4205D303FA02F5491BC1
:1005300004FA02F52844151EA2F10102F1DC30BDD7
:10054000202A04DB203A00FA02F100207047914093
:10055000C2F1200320FA03F3194390407047202A88
:1005600004DB203A21FA02F00021704721FA02F35D
:10057000D040C2F120029140084319467047202A1A
:1005800006DBCB17203A41FA02F043EAE07306E0BB
:1005900041FA02F3D040C2F12002914008431946CB
:1005A00070470029A8BF7047401C490008BF20F0D1
:1005B0000100704710B4B0FA80FC00FA0CF050EA69
:1005C000010404BF10BC704749B1CCF1200421FAEA
:1005D00004F411FA0CF118BF012121430843A3EBE5
:1005E0000C01CB1D4FEA00614FEA102042BF0020F2
:1005F00010BC704700EBC35010440029A4BF10BCCE
:100600007047401C490008BF20F0010010BC704733
:1006100010B5141E73F1000408DA401C41F100010A
:1006200092185B411A4301D120F0010010BD2DE961
:10063000F04D92469B4611B1B1FA81F202E0B0FA58
:1006400080F220329046FFF77BFF04460F4640EAD7
:100650000A0041EA0B0153465A46084313D011469B
:1006600053EA010019D0C8F140025046FFF777FF66
:1006700005460E46504659464246FFF761FF08437D
:1006800005D0012004E020463946BDE8F08D002069
:10069000054346EAE0762C4337430A986305E40AAB
:1006A000A0EB08000022FD0A44EA47540A3002D5B4
:1006B00000200146E9E7010510196941DDE9084517
:1006C00000196941BDE8F04DA2E72DE9F04D81EA3E
:1006D000030404F0004B21F0004514464FF0000ADB
:1006E00023F0004150EA050220D054EA01021DD057
:1006F000C5F30A570246C5F31303C1F31300C1F350
:100700000A5640F4801543F48013A7EB0608101B2B
:10071000D64608F2FD3873EB050002D308F1010854
:1007200001E092185B41B8F1000F03DA00200146A6
:10073000BDE8F08D00204FF48011064684460EE09F
:10074000171B73EB050705D3121B63EB0503064369
:100750004CEA010C49084FEA300092185B4150EA1C
:100760000107EDD152EA030012D082EA040083EAC5
:100770000501084305D0101BAB4106D2012200231E
:1007800006E000224FF0004302E06FF00102531038
:100790001AEB06004CEB085110EB0A0041EB0B0181
:1007A000BDE8F04DFFF734BFC1F30A52C1F31301A6
:1007B00040F2FF3341F480119A4202DA00200146F0
:1007C000704740F233439A42A2F2334202DC524273
:1007D000FFF7C5BEFFF7B4BE30B5041E71F10004CB
:1007E00004DB4FF00044404264EB0101141E73F13E
:1007F000000405DB1C464FF00043524263EB040348
:10080000994208BF904230BD002801DBC0F1004092
:10081000002901DBC1F10041814202D24FF00040CA
:1008200004E04FF0005001D14FF0C0404FEA206289
:10083000EFF3008162F31F6181F3008870470000CD
:10084000064C074D06E0E06840F0010394E807001D
:1008500098471034AC42F6D3FFF79AFCA06000082A
:10086000C060000870B58C1810F8015B15F0070324
:1008700001D110F8013B2A1106D110F8012B03E039
:1008800010F8016B01F8016B5B1EF9D12B0705D441
:100890000023521E0DD401F8013BFAE710F8013B8A
:1008A000CB1A921C03E013F8015B01F8015B521EA6
:1008B000F9D5A142D8D3002070BD0000464910B53B
:1008C0004A6822F440324A604A6843681A434A60E0
:1008D00001684A6822F480724A6001684A680369C4
:1008E00042EA03224A6001684A6822F040724A6084
:1008F00001684A6883681A434A6001688A6822F47A
:1009000000628A6001688A68C3681A438A60816AE3
:100910006FF07062D14201688A6822F070628A606A
:1009200001688A680CD0836A1A438A6001688A6801
:1009300022F040528A6001688A68C36A1A4301E063
:1009400022F040528A6001688A6822F002028A60BE
:1009500001688A68037E42EA43028A6090F82010A8
:10096000002901684A680FD042F400624A600168B9
:100970004A6822F460424A6001684A68174C436A38
:1009800004EB43331A4301E022F400624A60016839
:10099000CA6A22F47002CA620168CA6A838B104C68
:1009A00004EB03531A43CA6201688A6822F4007296
:1009B0008A6001688A6890F8303042EA43228A608F
:1009C00001688A6822F480628A6001688A684069E6
:1009D00042EA8020886010BD0023014000E0FFFF54
:1009E0000000F0FFFEE70000014800F0F9BA000047
:1009F0005C07002001681823CAB2103AB2FBF3F278
:100A0000054B6FF30901032A9B5CC36500D9091DDF
:100A10008165084670470000E659000810B5014698
:100A200000208B698A6A4FF0C07453B1B3F5005F40
:100A300015D072B1012A0CD0022A0AD0032A09D19A
:100A400004E01AB1012A06D0022A03D1C96AC901F9
:100A500000D5012010BDC96AA142FAD010BD002AFC
:100A6000F7D0012AF2D0022AF3D0032AF3D010BD26
:100A700030B50468256825F4802525600468636026
:100A80008368402B036803D099600068C26030BD62
:100A90009A600068C16030BD7047000010B5044620
:100AA0002DED028B006B0168496AA1F5FE41FF390B
:100AB0006162006847F6FF714162D4E9090100EE06
:100AC000100A9FED1C1A0144F8EEC00AA16280EEE4
:100AD000810A9FED191AC0EE010A9FED180A9FEDD9
:100AE000181A60EE800A80EE810A10EE100AFFF7F5
:100AF000E2FC9FED141B53EC112BFFF76AFC41EC59
:100B0000180B1248C068FFF7D6FC9FED111B53EC81
:100B1000112BFFF75EFC53EC182BFFF7B3FBFFF72D
:100B2000DDFC00EE100AB1EE400A84ED080ABDECCF
:100B3000028B10BD000030420AD7A33C0000704277
:100B40006666AA419A9999999999C93F44000020EB
:100B50009A9999999999E93F72B6FEE778B5002478
:100B6000009490F83C20012A19D0012280F83C2002
:100B70000A6807230568092A13D9EE680A3A02EBC6
:100B8000420293409E43EE600B788A680A3B03EB77
:100B900043039A400368DD682A43DA6010E00220CC
:100BA00078BD2E6902EB420293409E432E610B7882
:100BB0008A6803EB43039A4003681D692A431A615C
:100BC0004A681F23072A13D205686E6B521E02EB78
:100BD000820293409E436E630B790A885B1E92B239
:100BE00003EB83039A4003685D6B2A435A6327E053
:100BF00005680D2A12D22E6BD21F02EB820293409F
:100C00009E432E630B790A88DB1F92B203EB8303AA
:100C10009A4003681D6B2A431A6311E0EE6A0D3A8D
:100C200002EB820293409E43EE620B790A880D3BF1
:100C300092B203EB83039A400368DD6A2A43DA62C7
:100C4000164B0568144A9D4206D10D68122D03D13A
:100C5000556845F48005556005689D4218D10B68BC
:100C6000102B01D0112B13D1536843F400035360B0
:100C7000096810290CD10A490A4A0968B1FBF2F146
:100C800001EB8101490000E0491E00910029FBD1E0
:100C900080F83C40002078BD002301400020014046
:100CA0000C00002040420F0070B504004FF000051A
:100CB00003D0206C002610B107E0012070BD204653
:100CC00000F01CF8666484F83C60206CC00610D408
:100CD000206C20F4885040F0020020642046FFF78A
:100CE000EDFD6664206C20F0020040F001002064FD
:100CF00000E0012584F83C60284670BD30B587B01F
:100D0000044614216846FFF7A5FA20492068884266
:100D100039D11F480025016841F4807101600068E5
:100D200000F4807005901A481438016841F00401FD
:100D30000160016801F004010591016841F00101C1
:100D40000160016801F001010591016841F00201B3
:100D500001600068032400F00200059001208DE886
:100D6000310069460B4800F0ADFA10208DE83100E3
:100D70006946094800F0A6FA009469460748CDE99B
:100D8000014500F09FFA07B030BD0000002001408F
:100D900044380240000802400000024000040240C3
:100DA00070B5040003D094F8200010B104E00120D5
:100DB00070BD204600F082F82068016841F0010112
:100DC000016000F089FB0546052604E000F084FB85
:100DD000401B0A2811D820684068C007F6D0206858
:100DE000016821F00201016000F076FB05460BE08E
:100DF00000F072FB401B0A2806D9606A40F40030FC
:100E0000606284F82060D2E7206840688007EFD4F1
:100E1000207E0128206801683DD021F0800101601A
:100E2000607E01282068016838D021F0400101600F
:100E3000A07E01282068016833D021F020010160E4
:100E4000E07E0128206801682ED041F01001016089
:100E5000207F01282068016829D021F00801016065
:100E6000607F01282068016824D021F0040101601E
:100E7000D4E902010843D4E904121143084361682C
:100E8000491E08432168C86100206062012084F87F
:100E90002000002070BD41F08001C0E741F040011A
:100EA000C5E741F02001CAE721F01001CFE741F08A
:100EB0000801D4E741F00401D9E7000010B586B07D
:100EC000044614216846FFF7C5F914492068884292
:100ED00021D113480021026842F0007202600068CC
:100EE00000F0007005900E481038026842F00102D0
:100EF0000260006800F0010005904FF4C0500090BF
:100F00000220CDE9010103200390092004906946E5
:100F1000044800F0D7F906B010BD0000006400409E
:100F200040380240000002402DE9F0410446876D40
:100F300000F0D2FA064694F835000025022806D0C3
:100F40008020606584F834500120BDE8F08120687D
:100F5000016821F0160101602068416921F08001DB
:100F60004161206C08B9A06C20B12068016821F0B3
:100F7000080101602068016821F0010101600CE0B6
:100F800000F0AAFA801B052807D9202060650320FD
:100F900084F8350084F83450D7E720680068C0072B
:100FA000EED194F85C103F208840B860012084F8AE
:100FB000350084F834500020C7E790F83510022936
:100FC00003D08021416501207047052180F835104C
:100FD0000068016821F001010160002070470000F5
:100FE0002DE9F84304464FF00009CDF8009063481E
:100FF0004FF41651A56D0068B0FBF1F72E6894F818
:101000005C10082000FA01F131420FD021680A6813
:1010100052070BD50A6822F004020A6094F85C10AB
:101020008840A860606D40F00100606594F85C1035
:101030004FF0010808FA01F0304208D021684969F0
:10104000090604D5A860606D40F00200606594F860
:101050005C1004208840304208D021680968890764
:1010600004D5A860606D40F00400606594F85C10E1
:1010700010208840304218D021680968090714D52B
:10108000A86020680168490304D50068000308D5FA
:10109000A16C07E00168C90503D4016821F00801CB
:1010A0000160216C09B12046884794F85C1020202B
:1010B0008840304231D021680968C9062DD5A86022
:1010C00094F8350005282068016806D0490347D503
:1010D000006800031DD4616C1CE021F01601016062
:1010E0002068416921F080014161206C08B9A06C41
:1010F00020B12068016821F00801016094F85C10BB
:101100003F208840A86084F8358084F83490216DB1
:101110001FE0E16B09B120468847606D00282BD0A5
:10112000606DC00714D0052084F835002068016880
:1011300021F0010101600098401C0090B84203D8E2
:1011400020680068C007F6D184F8358084F83490B0
:10115000E16C002910D001B02046BDE8F0430847FB
:101160000168C905D5D4016821F01001016084F837
:10117000358084F83490CCE7BDE8F8830C0000207B
:101180002DE9F041044600F0A7F906465CB10220C3
:1011900084F83500002584F834502068016821F077
:1011A000010101600DE00120BDE8F08100F094F93B
:1011B000801B052805D920206065032084F83500B0
:1011C000F2E720680068C007F0D122681168204863
:1011D0000140D4E901031843D4E9033633431843EB
:1011E00063691843A3691843E3691843236A1843E2
:1011F0000843616A042903D1D4E90B131943084356
:10120000106020684069666A20F0070130460E438E
:10121000012704280CD1A06A0643E06A40B12046A9
:10122000FFF7FCFB20B14020606584F83570BAE719
:10123000206846612046FFF7DDFB94F85C203F21E3
:1012400091408160656584F835700020ACE700004E
:101250003F8010F02DE9F0410446866D90F834008F
:10126000002501280DD0012084F8340094F8357051
:101270000020012F07D084F8340002252846BDE85D
:10128000F0810220FBE7022784F835706065204674
:10129000FFF7EEFB94F85C103F208840B0602068B8
:1012A000016841F016010160206C20B120680168DE
:1012B00041F0080101602068016841F0010101600E
:1012C000DCE700002DE9F84FDFF8BCA10022012582
:1012D00003264FF00F090AF1040BAAF1040E00BF18
:1012E0000B6805FA02F42340A34270D10F7907F08E
:1012F0000307012F01D0022F16D187684FEA420859
:1013000006FA08FC27EA0C07D1F80CC00CFA08FC16
:101310004CEA070CC0F808C04768A7430C79C4F32F
:10132000001494403C4344600C79E443A4070AD081
:10133000C4684FEA420C06FA0CF7BC438F6807FA00
:101340000CF72743C7600C7904F00304022C12D178
:10135000D40800EB840CDCF820405707FF0E09FA94
:1013600007F824EA0804D1F8108008FA07F848EAD8
:101370000408CCF8208004684FEA420C06FA0CF707
:10138000BC430F7907F0030707FA0CF72743076000
:101390004C6814F4403F70D03C4C276847F48047B9
:1013A0002760246822F0030704F480440094384C3A
:1013B00007EB040CDCF8084897074FEA177809FA9E
:1013C00008F7BC43334FB84202D1002724E054E071
:1013D000314FB84201D101271EE0304FB84201D150
:1013E000022719E02E4FB84201D1032714E02D4FF8
:1013F000B84201D104270FE02B4FB84201D1052795
:101400000AE02A4FB84201D1062705E0284FB8422A
:1014100001D1072700E0082707FA08F72743CCF88F
:101420000878DAF800405746D1F804C09C435FEAD8
:10143000CC2C00D51C433C60DBF800405F46D1F863
:1014400004C09C435FEA8C2C00D51C433C60DEF852
:1014500000407746D1F804C09C435FEA8C3C00D53D
:101460001C433C60084F083F3C68D1F804C09C43D3
:101470005FEACC3C00D51C433C60521C102AFFF4B0
:101480002FAFBDE8F88F0000083C0140443802400F
:101490000030014000000240000402400008024009
:1014A000000C0240001002400014024000180240EC
:1014B000001C02400069084000D0012070474269CA
:1014C00021EA02030A4043EA0241816170470AB1FE
:1014D000816170470904FBE701488068704700009C
:1014E0000000002070B5040025D094F83D000025D0
:1014F00020B984F83C50204600F04EF9242084F8AE
:101500003D002068016821F0010101602068016848
:1015100041F4004101602068016821F4004101604C
:1015200000F0C4FA4D4A6168914201D84C4900E08C
:101530004C49884201D2012070BD4B492368B0FB61
:10154000F1F15E6826F03F060E435E6063689342E9
:1015500006D94FF4967359434FF47A73B1FBF3F104
:101560002368491C1E6A26F03F06314319626168F0
:10157000914210D84900401EB0FBF1F2521CC2F358
:101580000B02042A01D2042022E0B0FBF1F0401C3F
:10159000C0F30B001CE0A268F2B301EBC10303EB44
:1015A0000116431EB3FBF6F35B1C43F480431B059B
:1015B00049D092B301EBC10202EB0111401EB0FB16
:1015C000F1F0401CC0F30B0040F4804040F40040B8
:1015D0002168CA694CF6FF739A431043C861D4E985
:1015E000071001432068026822F0C0021143016025
:1015F000D4E9030101432068826848F2FF339A432B
:1016000011438160D4E9050108432168CA6822F0CA
:10161000FF021043C86001E00EE016E02068016898
:1016200041F0010101602564202084F83D0025631C
:1016300084F83E50002070BD01EB4106431EB3FB11
:10164000F6F35B1CB3E70120C2E701EB4101401E4A
:10165000B0FBF1F0401CC0F30B00B7E7A08601001F
:1016600080841E0000093D0040420F002DE9F84F24
:101670001F4690468A460446DDF82890FFF72CFF67
:10168000054694F83D0020287FD1192301224049C6
:101690002046009501F0D2FD002876D194F83C0058
:1016A000012872D0012084F83C0020680168C90735
:1016B00003D1016841F0010101602068016821F453
:1016C00000610160212084F83D00102084F83E0074
:1016D00000262664C4F824806785608D20852D4807
:1016E000E0622B464A465146204601F02DFD90B956
:1016F000206841698069009036E02A4649462046C4
:1017000001F042FE50B1206C042804D12068016829
:1017100041F4007101600120BDE8F88F606A216822
:1017200000780861606A401C6062618D491E6185B5
:10173000218D491E89B2218522685369DB435B07ED
:101740000BD451B100781061606A401C6062608DFA
:10175000401E6085208D401E20852A464946204631
:1017600001F040FD0028CED1208D0028C5D154F8CD
:101770003D0B016841F400710160202004F81E094E
:10178000E67766770020C7E7FFE70220C4E700009E
:10179000020010000000FFFFF0B587B004461421DE
:1017A0006846FEF757FD2768234CDFF888C0002203
:1017B000214912230325042620481034674518D1F7
:1017C0000F6847F002070F60096802AF01F00201DD
:1017D0000591C021CDE9001387E864006946FFF751
:1017E00071FD206840F400102060206800F40010B3
:1017F0001CE0DFF84CC0674519D10F6847F00207BD
:101800000F60096802AF01F0020105914FF44061D9
:10181000CDE9001387E864006946FFF753FD2068AF
:1018200040F480002060206800F48000059007B03C
:10183000F0BD000000540040303802400004024077
:101840000058004002488168027811448160704766
:10185000000000200B4810B5016841F400710160E0
:10186000016841F480610160016841F480710160A8
:10187000032000F06FF80F2000F006F800F024F8C5
:10188000002010BD003C024070B50D4D04464FF4E1
:101890007A712878B1FBF0F00A490968B1FBF0F0E1
:1018A00000F09EFB48B9102C07D200222146501EA2
:1018B00000F030F800206C6070BD012070BD0000A9
:1018C000000000200C0000200A4808B5016841F41F
:1018D00080410160006800F4804000900548001FCE
:1018E000016841F080510160006800F08050009074
:1018F00008BD000044380240002809DB00F01F0248
:10190000012191404009800000F1E020C0F8001161
:1019100070470000F0B40E4B1B680C46C3F3022363
:10192000C3F10705042D00D90425191D072901D28B
:10193000002300E0DB1E012606FA05F1491E2140C6
:1019400099409E40761E16403143F0BC03F0E6BA43
:101950000CED00E0064900F0070208684FF6FF03AF
:10196000184040EA0220034A104308607047000014
:101970000CED00E00000FA052DE9F0470E460500E9
:1019800065D0DFF81481D8F80000F7B200F0070046
:10199000B04207D288F80070D8F8000000F00700C5
:1019A000B04254D128683D4C810712D5400703D579
:1019B000206840F4E05020602878000703D52068B4
:1019C00040F4604020602068A96820F0F0000843DF
:1019D00020602878C0072DD0304968680839012870
:1019E00012D0022813D0032811D0096889070029D2
:1019F0002DDA216821F0030101432160FFF76CFD1E
:101A0000814641F2883A0EE009688903EFE70968E8
:101A10008901ECE7FFF760FDA0EB0901514502D910
:101A20000320BDE8F0872068696800F00C00B0EB87
:101A3000810FEFD1D8F80010404601F00701B14204
:101A400007D90770006800F00700B04201D00120FC
:101A5000E7E72878400705D52068E96820F4E050DA
:101A6000084320602878000706D52068296920F4FB
:101A7000604040EAC100206000F038F82168084A60
:101A8000C1F30311515CC84006490860064800686C
:101A9000FFF7FAFE0020C4E7003C0240083802408D
:101AA000EE5900080C0000200400002004480549FD
:101AB00000680968044AC1F38221515CC84070473C
:101AC0000C00002008380240FE590008044805496F
:101AD00000680968044AC1F34231515CC84070474C
:101AE0000C00002008380240FE590008154810B5C7
:101AF000006810F00C02144813D01449042A0FD0C7
:101B0000082A0ED10F4C241F2268236802F03F02DE
:101B10005B0207D52068C0F38810A0FB010106E036
:101B2000084610BD2168C1F38811A1FB0001002304
:101B3000FEF746FB2168C1F30141491C4900B0FB97
:101B4000F1F010BD083802400024F40040787D0117
:101B50002DE9F84F04006ED02078DFF84C93C007D1
:101B6000A9F104054AD009F104000168C1F381011B
:101B7000012908D00068C0F3810002280AD1D9F8F1
:101B80000000400206D52868800337D56068002829
:101B9000E1D033E06068B0F5803F10D0B0F5A02F01
:101BA000286810D020F480302860286820F4802035
:101BB00028606068A8B1FFF78FFC06460DE0286832
:101BC00040F48030F4E740F480202860F7E700BF5D
:101BD000FFF782FC801B642873D828688003F7D540
:101BE0000CE0FFF779FC064605E000BFFFF774FC48
:101BF000801B6428F0D828688003F7D42078DFF8A9
:101C0000AC8280074FF0000A3ED5A748001D01684E
:101C100011F00C0F08D00068C0F3810002280BD12E
:101C2000D9F80000400207D42868800716D5E0687C
:101C3000012800D112E033E1E068B8B10120C8F812
:101C40000000FFF749FC064605E000BFFFF744FC33
:101C5000801B0228C0D828688007F7D5286821692A
:101C600020F0F80040EAC10028600DE0C8F800A0AC
:101C7000FFF732FC064604E0FFF72EFC801B02282B
:101C80001FD828688007F7D42078000722D5864F10
:101C900087486169703771B101210160FFF71CFC51
:101CA000064604E0FFF718FC801B022809D83868B4
:101CB0008007F7D50EE0C0F800A0FFF70DFC064640
:101CC00005E082E0FFF708FC801B02287DD8386819
:101CD0008007F7D42078400768D5DFF8CCB100271B
:101CE0000BF13C0BDBF80000C0000BD4DBF800105C
:101CF00041F08051CBF80010DBF80000012700F024
:101D0000805000906B4E3068C00510D4306840F4AD
:101D100080703060FFF7E0FB009005E0FFF7DCFB30
:101D20000099401A022850D83068C005F6D55E4E9A
:101D3000A0686C3601280FD00528306810D020F03C
:101D400001003060306820F004003060A068B8B155
:101D5000FFF7C2FB00900FE0306840F00100F4E7AD
:101D600040F004003060F7E7FFF7B6FB0099411A36
:101D700041F28830814266D830688007F4D50EE0A1
:101D8000FFF7AAFB009007E0FFF7A6FB0099411AB6
:101D900041F28830814256D830688007F4D42FB1A0
:101DA000DBF8001021F08051CBF80010A069C8B317
:101DB0003D49091D0968C1F3810102294AD0022861
:101DC000504607D0C8F8600000E03CE0FFF784FB15
:101DD00004463BE04746C8F86000FFF77DFB064637
:101DE00005E000BFFFF778FB801B02282BD828688E
:101DF0008001F7D4D4E907010843A16A2E4A4908B3
:101E000002EB0141626A41EA8211084394F82C1006
:101E100040EA0161C9F8001001203866FFF75CFB59
:101E2000044606E03EE000BFFFF756FB001B022819
:101E300009D828688001F7D534E000BFFFF74CFBD4
:101E4000001B022802D90320BDE8F88F2868800112
:101E5000F4D427E00128F7D0D9F80000E26900F4B3
:101E6000800191421CD1226A00F03F01914217D1BA
:101E700047F6C071626A0140B1EB821F10D1A26ABD
:101E80004FF0FF3300F4403103EB5202B1EB024F4D
:101E900006D194F82C1000F07060B0EB016F01D007
:101EA0000120D1E70020CFE704380240000047427C
:101EB000800E4742007000400000FFFF70B5040034
:101EC00009D0606A002540B125616561A56294F87A
:101ED000510040B10CE0012070BD6068B0F5827F18
:101EE000F4D0E561F2E784F85050204600F044F861
:101EF000022084F851002068016821F0400101604F
:101F0000A088218900F4827001F404410843A1896A
:101F100001F400610843217C01F002010843217DA6
:101F200001F001010843218B01F400710843217F76
:101F300001F03801084394F8201001F080010843B3
:101F4000218D01F40051084321680860A069042133
:101F500001EA104094F8241001F0100108432168B0
:101F600048602068C16921F40061C1616565012094
:101F700084F85100002070BD10B586B004461421CD
:101F80006846FEF767F913492068884220D1124855
:101F90000021026842F480520260006800F4805020
:101FA00005900D481438026842F001020260006892
:101FB00000F001000590E02000900220CDE9010131
:101FC000032003900520049069460448FFF77AF93E
:101FD00006B010BD0030014044380240000002400D
:101FE00010B5401EB0F1807F01D3012010BD4FF02D
:101FF000E02460610F21601702F090FF0020A061D3
:1020000007202061002010BD7047704710B590F880
:102010003C20012A22D0012280F83C20CA688C682A
:1020200022F4407222434C6822F4806222430C68FE
:1020300022F4006222430C6922F4805222434C694C
:1020400022F400522243C969002322F480420A4349
:1020500001684A6480F83C30002010BD022010BDA9
:1020600070B590F83C20012A32D0012480F83C4021
:10207000022280F83D2003685A689D6822F07006AD
:102080000A6832435A60134B02689A4214D0B2F184
:10209000804F11D0104B9A420ED0104B9A420BD069
:1020A0000F4B9A4208D00F4B9A4205D00E4B9A42E2
:1020B00002D00E4B9A4204D1496825F0800319439F
:1020C000916080F83D40002180F83C10084670BDCA
:1020D000022070BD000001400004004000080040E4
:1020E000000C004000040140004001400018004086
:1020F00010B5040003D094F83D0010B107E00120B2
:1021000010BD002084F83C00204600F01FF802209B
:1021100084F83D00211D206802F0BCFA012084F8FB
:10212000460084F83E0084F83F0084F8400084F8BC
:10213000410084F8420084F8430084F8440084F8A5
:10214000450084F83D00002010BD000008B52F496F
:1021500002682F488A4207D1016841F008010160F6
:10216000006800F008003AE029492A4B091D9A420C
:1021700007D1086840F002000860086800F002001B
:1021800039E0254B9A420ED1086840F4803008604F
:102190000868002200F48030009001211820FFF729
:1021A000B9FB18202EE01D4B9A420ED1086840F46E
:1021B000003008600868002200F40030009001211F
:1021C0001920FFF7A7FB19201CE015498A4208D106
:1021D000016841F040010160006800F0400000909B
:1021E00008BD10498A42FBD1016841F080010160BD
:1021F000006800F080000090002202212C20FFF7F0
:1022000089FB2C20BDE80840FFF776BB000C00409E
:1022100040380240000401400040014000440140B9
:1022200000180040001C004090F83D10012901D02A
:1022300001207047022180F83D100168CA6842F011
:102240000102CA6000681149884214D0B0F1804F81
:1022500011D00F4988420ED00E4988420BD00E494A
:10226000884208D00D49884205D00D49884202D0E5
:102270000C49884204D1816801F00701062903D086
:10228000016841F001010160002070470000014039
:102290000004004000080040000C00400004014021
:1022A000004001400018004070B5044690F83C0022
:1022B0000025012817D0012684F83C60022084F80C
:1022C0003D002068826822F0770222F47F4282601B
:1022D0000868502838D00DDC20284FD005DC90B39A
:1022E000102811D14AE0022070BD302846D0402885
:1022F0000AD13BE060282FD070280DD0B0F5805F68
:1023000003D0B0F5005F12D0012584F83D600020B5
:1023100084F83C00284670BDCB68D1E901212068D3
:1023200002F031FA2068816841F0770109E0CB685A
:10233000D1E90121206802F026FA2068816841F481
:1023400080418160E1E719E0CA684968206802F0CD
:10235000EFFA5021206806E0CA684968206802F058
:10236000F8FA6021206802F018FACEE7CA684968D6
:10237000206802F0DDFA40212068F4E72268014677
:102380001046F0E72DE9F0410D46040003D094F823
:102390003D0018B108E00120BDE8F081002084F87C
:1023A0003C00204600F040F8022084F83D00206800
:1023B000816844F2070291438160211D206802F088
:1023C00069F9226890689169166A2B68AF690343BE
:1023D00040F20330814341EA0721A868EF690843CE
:1023E0004FF6FC418843E96840EA07200143286929
:1023F0002F6A000140EA0730084369686D6926F0DA
:10240000AA0646EA0515294393602268906154F8AC
:10241000460B0162012004F81F09E0752076E07682
:102420002077A0750020B7E7F0B587B004461421E7
:102430006846FDF70FFF6049226800265F480224C6
:1024400001258A4239D15D4914310A6842F00102FE
:102450000A60096801F001010591016841F010016D
:1024600001600068694600F0100005904FF420609C
:102470008DE8710052480495FEF724FF00220121E7
:102480001820FFF747FA1820FFF736FA002201213B
:102490001920FFF73FFA1920FFF72EFA0022012139
:1024A0001A20FFF737FA1A20FFF726FA0022012137
:1024B0001B20FFF72FFA1B2056E04049414F1031F7
:1024C000B2F1804F21D0404B9A4251D10A6842F07C
:1024D00002020A60096801F002010591016841F0F9
:1024E000020101600068694600F00200059030209A
:1024F0008DE8710038460494FEF7E4FE00220121C5
:102500001D20FFF707FA1D202EE00A6842F00102A5
:102510000A60096801F001010591016841F00101BB
:102520000160016801F001010591016841F00201BB
:1025300001600068694600F0020005904FF4004019
:102540008DE8710021480495FEF7BCFE08208DE857
:102550007100694638460495FEF7B4FE0022012159
:102560001C20FFF7D7F91C20FFF7C6F907B0F0BD14
:10257000174B9A42FAD10A6842F004020A600968CD
:1025800001F004010591016841F008010160006853
:10259000694600F0080005904FF440508DE8710046
:1025A0000C480494FEF78EFE002201211E20FFF746
:1025B000B1F91E20D8E70000000001403038024089
:1025C00000100240000402400004004000000240ED
:1025D00000080040000C024070B590F83E600446D0
:1025E00090F83F5090F8423090F84320022021B1FB
:1025F00004290ED0012E1BD114E0012E18D1012B7D
:1026000016D184F83E0084F842000122002120689F
:1026100020E0012D0CD1012A0AD184F83F0084F872
:10262000430014E0012D03D1012B01D1012A01D077
:10263000012070BD84F83E0084F83F0084F8420019
:1026400084F8430001220021206802F08FF8012263
:102650000421206802F08AF82068016841F0010135
:102660000160002070BD90F83C20012A0CD00122AE
:1026700000F83C2F0223437050F83C3C59614270F3
:1026800000210170084670470220704770472DE90D
:10269000F04104460068C66805694FF00007A907C5
:1026A00013D5B10711D5F91E0161012020772068EB
:1026B00080698007204602D0FFF7E8FF04E000F0C1
:1026C00005F9204600F097F92777680716D57007B7
:1026D00014D521686FF0040008610220207720687B
:1026E000806910F4407F204602D0FFF7CFFF04E05E
:1026F00000F0ECF8204600F07EF92777280715D582
:10270000300713D521686FF0080008610420207796
:102710002068C0698007204602D0FFF7B7FF04E0B9
:1027200000F0D4F8204600F066F92777E80616D5C1
:10273000F00614D521686FF010000861082020779A
:102740002068C06910F4407F204602D0FFF79EFF4A
:1027500004E000F0BBF8204600F04DF92777E807C9
:1027600008D0F00706D021686FF00100086120460C
:1027700000F0A6F9280608D5300606D521686FF0C6
:10278000800008612046FFF73FFC680608D5700608
:1027900006D521686FF040000861204600F0DCF9A2
:1027A000A8060AD5B00608D521686FF02000086198
:1027B0002046BDE8F041FFF728BCBDE8F0810000ED
:1027C00070B586B0044614216846FDF743FD2468C1
:1027D0003448002234490223844210D1086840F072
:1027E000010008600868694600F0010005900F20AC
:1027F0000090CDE901322D48CDE9032313E02C48A8
:102800000325844213D1086840F00400086008687A
:10281000694600F0040005904FF470700090CDE917
:102820000132244826E0FEF74DFD06B070BD224877
:1028300084420ED1086840F01000086008686946BC
:1028400000F01000059060200090CDE901321B4897
:1028500010E01B4E1B48B4420FD10C6844F0020438
:102860000C60096801F00201059181150091CDE924
:1028700001326946CDE90325D5E7134DAC42D4D1E9
:102880000C6844F002040C60096801F00201059133
:10289000E9000091CDE901320921CDE90321694622
:1028A000C1E70000000C0040303802400000024048
:1028B00000040140000802400040014000100240B6
:1028C000004401400004024000180040704770B509
:1028D000044690F83C0000260D4601280FD0012048
:1028E00084F83C006AB1042A1DD0082A2FD00C2A93
:1028F0003FD00126002084F83C00304670BD022005
:1029000070BD206801F052FF2068816941F0080124
:1029100081612068816921F00401816120688169F9
:102920002A69114311E0206801F070FF2068816975
:1029300041F4006181612068816921F480618161D5
:10294000206881692A6941EA02218161D2E7206811
:1029500001F092FF2068C16941F00801C16120685F
:10296000C16921F00401C1612068C1692A6911436C
:1029700011E0206801F0B4FF2068C16941F40061F2
:10298000C1612068C16921F48061C1612068C169A9
:102990002A6941EA0221C161ACE710B5040003D005
:1029A00094F83D0010B107E0012010BD002084F82C
:1029B0003C00204600F01EF8022084F83D00211D56
:1029C000206801F067FE012084F8460084F83E008C
:1029D00084F83F0084F8400084F8410084F8420005
:1029E00084F8430084F8440084F8450084F83D00EE
:1029F000002010BD7047704710B50446022249B14F
:102A000004290ED0082913D094F84100012816D0CB
:102A1000012010BD94F83E000128F9D184F83E2031
:102A20000FE094F83F000128F2D184F83F2008E03D
:102A300094F840000128EBD184F8402001E084F8AC
:102A400041200122206801F091FE16492068164AB3
:102A5000884201D0904203D1436C43F40043436465
:102A60002068884213D0B0F1804F10D00F498842BF
:102A70000DD00F4988420AD00E49884207D09042B3
:102A800005D00D49884202D00C49884204D18168A2
:102A900001F00701062903D0016841F0010101603E
:102AA000002010BD0000014000040140000400406F
:102AB00000080040000C00400040014000180040A9
:102AC0002DE9F0410068214988423CD1204C002585
:102AD0006068401C6060A168491CA160642810DB2C
:102AE0006560217804F5987030F8210081B21948AA
:102AF000FEF7E5FC2078401CC0B22070032800D10E
:102B00002570A06814281EDBA560114E0025103624
:102B100005EBC50706EBC7042046216C8847D4EDBA
:102B2000080A94ED070A56F8370001F083FC84ED9B
:102B30000F0ABDEEC00A616C2046B8EEC00A884795
:102B40006D1C042DE4DBBDE8F0810000001C00409A
:102B500044000020000C024070477047704700009E
:102B6000F8B5016804460868CA684B6910F00F0F91
:102B70004FF0000559D003F0010602F49077374377
:102B800065D0C10705D0D10503D5616C41F00101C5
:102B90006164410705D5D90703D0616C41F002019A
:102BA0006164810705D5D90703D0616C41F0040148
:102BB0006164010707D502F02001314303D0616C45
:102BC00041F008016164616C00293AD0800604D5A7
:102BD000900602D5204601F09BFF20684069616C99
:102BE000C0F38010090700D460B3204601F05BFFFA
:102BF00020684069400621D52068143050E8001F45
:102C000021F0400140E80012002AF5D1E06BA8B1A4
:102C10006E490165E06BFEF7D0F9002811D0E06B3A
:102C2000016D01B0BDE8F040084783060FD593065B
:102C30000DD52046BDE8F84001F06ABF2046FFF7F9
:102C40008DFFF8BD2046FFF789FF6564F8BD266B50
:102C50002023012E7DD1C6067BD5D60679D50868FE
:102C60004868009048694FF00206400641D5E16B84
:102C7000086840680004000CE8D0A28D8242E5D9C3
:102C8000E085C869B0F5807F2DD020680C3050E811
:102C9000001F21F4807140E80012002AF5D120685D
:102CA000143050E8001F21F0010140E80012002A12
:102CB000F5D12068143050E8001F21F0400140E8B1
:102CC0000012002AF5D184F84230256320680C30C8
:102CD00050E8001F21F0100140E80012002AF5D151
:102CE000E06BFEF721F96663A08DE18D401A81B299
:102CF0002AE0A08DE18D401A81B2E08D0028A5D098
:102D00000029A3D022680C3252E8000F20F4907002
:102D100042E80007002FF5D12068143050E8002F5A
:102D200022F0010240E80027002FF5D184F842305C
:102D3000256320680C3050E8002F22F0100240E894
:102D40000023002BF5D166632046FFF706FFF8BD90
:102D5000FFE705062BD5150629D594F84100212853
:102D6000F5D1A068B0F5805F01D12069B0B1206ACB
:102D7000411C2162216800784860E08C401E0004FC
:102D8000000CE084E3D12068C16821F08001C160BB
:102D90002068C16841F04001C160D8E7206A00881E
:102DA000C0F308004860206A801C2062E5E7400606
:102DB000CDD55006CBD5CA68204622F04002CA6065
:102DC00084F8413000F0A7F9C1E70000A9490008E4
:102DD00070B5040004D094F84100002510B106E05D
:102DE000012070BD84F84050204600F023F82420D4
:102DF00084F841002068C16821F40051C160204678
:102E000001F0E8FE2068016921F490410161206829
:102E1000416921F02A0141612068C16841F40051F3
:102E2000C1606564202084F8410084F84200656335
:102E3000002070BD2DE9F04786B007461421684692
:102E4000FDF708FA6E48DFF8B4C13B6800246C490E
:102E50001038022603256B4A4FF00808634518D145
:102E60000B6843F400230B60096801F4002105910D
:102E7000016841F004010160006802AB00F0040049
:102E80000590A802CDE9000683E8300169461046A6
:102E900031E0DFF874C1DFF874A14FF00409634535
:102EA0002ED10B6843F480130B60096801F4801184
:102EB0000591016841F004010160016801F004011D
:102EC0000591016841F008010160006802AB00F063
:102ED000080005904FF48050CDE9000683E83001EA
:102EE00069461046FEF7EEF902AB694683E8300109
:102EF000CDE900965046FEF7E5F906B0BDE8F0874B
:102F0000DFF80CC10722634519D13D49091D0B6843
:102F100043F010030B60096801F01001059101688E
:102F200041F0010101600068694600F00100059070
:102F30004FF4C060CDE900060294364819E0DFF88E
:102F4000D8C0634518D10B6843F400330B6009689F
:102F500001F400310591016841F008010160006849
:102F6000694600F0080005906020CDE90006029453
:102F70005046CDE90352BEE7DFF8A0C06345BCD19F
:102F80000B6843F480230B60096801F480210591EC
:102F9000016841F0080101600068029400F0080037
:102FA00005904FF44070CDE90006CDE90352694623
:102FB0005046FEF787F91B4E194830604FF000600D
:102FC000C6E901044014C6E903407461B461F461C8
:102FD000C6E90849C6E90A5430463463FEF7D0F81A
:102FE00008B1FDF7B9FDFE63002211462720B76343
:102FF000FEF790FC2720FEF77FFC7EE7004C0040A8
:10300000403802400008024000500040000C0240DE
:103010000010014000000240004400400048004011
:10302000286002405C07002090F84230202B01D03D
:103030000220704721B11AB10023036301F050BE92
:103040000120704710B500680749884203D107483E
:10305000807802F035FC05490122BDE81040891C4A
:103060000348FFF7E1BF0000004800408401002052
:103070001407002070472DE9F843044690F84100FA
:10308000984616460D46202802D00220BDE8F88357
:1030900085B17EB100206064212084F84100FEF7F4
:1030A0001BFAA6848146E684A0682027B0F5805FDD
:1030B00002D003E00120E9E7206910B12E46002587
:1030C0000EE000260CE08021204601F051FEA8B958
:1030D000C6B116F8010B21684860E08C401EE08400
:1030E000E08C4B464FF00002CDF800800028EAD17A
:1030F0004FF04001204601F03BFE40B184F84170A2
:103100000320C3E735F8020BC0F30800E3E784F8B7
:1031100041700020BAE77047FEE701684A69D24370
:1031200052050FD46FF480624A61002140F8301FCD
:10313000202242738173026942F00402026101732A
:103140000120704700207047F8B50446C06A1E464B
:103150000D461746082807D0012805D010F5803FF6
:1031600002D0206B122804D12068016841F48071DC
:103170000160134600224FF001112046009600F036
:103180005DF840B120680068C00502D54FF40070BA
:1031900020640320F8BD2069B0F5804F0ED00620D2
:1031A000216800EAD51040F0F000086133463A4645
:1031B0000B49204600F08AF878B902E005F0FE00DD
:1031C00000E0E8B221680861054933463A46891FA4
:1031D000204600F07BF80028DCD00120F8BD00007C
:1031E0000800010070B516460D4604461EE0204654
:1031F000FFF793FF08B1012070BD681C16D0FEF7E1
:103200006BF9801BA84200D885B920684069C0438B
:1032100040070BD5002044F8300F20216173A073C4
:10322000216941F0200121612073E4E720684069B1
:10323000C0434007DBD4002070BD00002DE9F047FB
:10324000984617460D460446C1F30746DDF8209020
:103250002AE000BFB8F1FF3F26D0FEF73DF9A0EB12
:103260000901414502D8B8F1000F1DD12068012E97
:1032700016D0806925EA00000004000C12D000205E
:10328000B84211D1002044F8300F20216173A0739F
:10329000216941F02001216120730120BDE8F08700
:1032A0004069E7E70120EBE72068012E0AD080693A
:1032B00025EA00000004000C06D00020B842C9D066
:1032C0000020EBE74069F3E70120F7E72DE9F0473D
:1032D000984616460D4604464FF000094FF0200A66
:1032E000C1F3074723E020684069C043400515D477
:1032F0002068016841F40071016021686FF480600A
:103300004861C4F8309084F83DA084F83E90216C68
:1033100041F00401216484F83C9021E0701C06D047
:10332000FEF7DAF8A0EB0800B04203D816B1012F7F
:103330001FD021E02068012F15D0806925EA000008
:103340000004000C18D000BF44F8309F84F80DA092
:1033500084F80E90216941F02001216184F80C90DD
:103360000120BDE8F087406925EA00000004000C58
:10337000EAD12068406901E02068806925EA000000
:103380000004000CAFD1ECE770B516460D460446BC
:103390001EE02046FFF7C1FE08B1012070BD681C89
:1033A00016D0FEF799F8801BA84200D885B920688E
:1033B0004069C04300060BD5002044F8300F20219F
:1033C0006173A073216941F0200121612073E4E75A
:1033D00020684069C0430006DBD4002070BD0000B7
:1033E000012202490248FFF71FBE000086010020AB
:1033F0001407002070B5104D002404212846FEF764
:1034000059F878B169150D48FEF754F860B10121FB
:103410002846FEF74FF848B102212846FEF74AF841
:1034200030B106E0012404E0022402E0032400E0BD
:103430000424204670BD0000001002400004024039
:103440002DE9F041FFF7D6FF00210A4B01260D467A
:103450005C1C4A1C675C904203D127B966541A7001
:1034600001E007B16554D1B20529F2D318781D7077
:10347000BDE8F0811000002010B5FEF72DF8274CB4
:10348000E168401A14281AD3FEF726F8E060FFF727
:10349000D7FF9FED230A04F11401F2EE040A01287C
:1034A0000ED002281BD0002103282BD0042806D1DF
:1034B0006078401CC0B26070022800D1617010BDFD
:1034C000607838B1207801EB8000D0ED000A30EE52
:1034D000800A0DE094ED010A30EE200A0FE06078DA
:1034E00048B1207801EB8000D0ED000A30EEC00A30
:1034F00080ED000A10BD94ED010A30EE600A84ED03
:10350000010A10BD60780028FBD02078401CC0B2B2
:1035100020700228F5D1217010BD00009401002018
:10352000CDCCCC3D7FB50024154800940194029485
:103530001249039401604FF48031C0E90114046121
:10354000047680F820400F49C0E90A140125C561BE
:10355000C46080F830404561FDF7A6FB08B1FDF777
:10356000FBFA0420CDE90005694602940448FDF702
:10357000F5FA002801D0FDF7EFFA7FBD00200140E9
:10358000B40100200100000F0D4810B50B49016087
:103590001021416000218160C160016141610176BB
:1035A00041768176C17601774177FDF7F9FB0028F6
:1035B00003D0BDE81040FDF7CFBA10BD0064004055
:1035C000FC010020094808B5016841F400110160C0
:1035D0000068002200F40010009011460C20FEF755
:1035E00099F9BDE808400C20FEF786B93038024052
:1035F0002DE9F04186B014216846FCF72BFE3248D5
:103600000024016841F010010160016801F010011F
:103610000591016841F080010160016801F08001BD
:103620000591016841F004010160016801F00401A5
:103630000591016841F001010160016801F001019B
:103640000591016841F002010160016801F0020189
:103650000591016841F00801016000681B4F00F00E
:1036600008000590002210213846FDF730FFDFF8F2
:10367000608040F20B46002231464046FDF727FFAE
:10368000072001258DE8310069461248FDF71AFE32
:1036900010200090CDE90154694638460394FDF7A7
:1036A00011FE0096CDE90154694640460394FDF7AA
:1036B00009FE68028DE8310069460748FDF702FE01
:1036C00006B0BDE8F081000030380240000802403A
:1036D000000C024000100240000402400D4810B5EA
:1036E0000B4901600C49416000214FF48042816028
:1036F000C0E9031241618161C1610162FDF7F2FE1F
:10370000002803D0BDE81040FDF726BA10BD000028
:103710000054004024020020801A06000D4810B515
:103720000B4901600C49416000214FF480428160E7
:10373000C0E9031241618161C1610162FDF7D2FEFE
:10374000002803D0BDE81040FDF706BA10BD000008
:103750000058004078020020801A06000F4810B57B
:103760000D4901604FF48271416000218160C160A8
:103770004FF400720161C0E90512C161016241624A
:1037800081620A21C162FEF799FB002803D0BDE8DF
:103790001040FDF7E1B910BD00300140CC0200201F
:1037A00010B588B01C216846FCF754FD1448134935
:1037B0000024C0E900144FF6FF71C0E90241046122
:1037C0008461FEF795FC08B1FDF7C6F90C48FFF7D8
:1037D000E4F808B1FDF7C0F96020CDE900040294D7
:1037E0000022694606480494FFF771F808B1FDF716
:1037F000B3F90348FEF7E4FF08B010BD00440140F0
:103800001C05002010B58CB000240794089409947E
:103810001C2168460A94FCF71DFD1D481B49C0E9A0
:1038200000144FF6FF71C0E9024104618461FEF7A4
:103830005FFC08B1FDF790F94FF48050079007A99D
:103840001348FEF731FD08B1FDF786F91048FFF780
:10385000A4F808B1FDF780F96020CDE900040294D6
:10386000002269460A480494FFF731F808B1FDF7D1
:1038700073F9042269460648FFF729F808B1FDF7F5
:103880006BF90348FEF79CFF0CB010BD0018004018
:10389000640500200C4810B50A49016053214160BD
:1038A000002140F2E732C0E902120161802181610A
:1038B000FEF71EFC002803D0BDE81040FDF74CB910
:1038C00010BD0000001C0040AC05002010B58CB0FD
:1038D00024216846FCF7BEFC0024164809941449CC
:1038E0000A94C0E9001444F62061C0E90241046171
:1038F000446184610320CDE900040120CDE9020484
:103900000494CDE90540079469460A480894FEF7F7
:1039100039FD08B1FDF720F9099409A905480A9471
:10392000FEF79EFB002801D0FDF716F90CB010BD84
:10393000000001402403002010B58CB0242168460B
:10394000FCF788FC0024154809944FF080410A9444
:10395000C0E9001444F62061C0E9024104618461B9
:103960000320CDE900040120CDE902040494CDE94F
:1039700005400794694609480894FEF703FD08B11D
:10398000FDF7EAF8099409A904480A94FEF768FBD0
:10399000002801D0FDF7E0F80CB010BD6C0300204A
:1039A00010B58CB024216846FCF754FC002416485E
:1039B000099414490A94C0E9001444F62061C0E94E
:1039C0000241046184610320CDE900040120CDE9B6
:1039D00002040494CDE90540079469460A48089416
:1039E000FEF7D0FC08B1FDF7B7F8099409A906481D
:1039F0000A94FEF735FB002801D0FDF7ADF80CB0B6
:103A000010BD000000040040B403002010B58CB0CD
:103A100024216846FCF71EFC00241648099414492A
:103A20000A94C0E9001444F62061C0E9024104612F
:103A300084610320CDE900040120CDE9020404944F
:103A4000CDE90540079469460A480894FEF79AFCB8
:103A500008B1FDF781F8099409A906480A94FEF710
:103A6000FFFA002801D0FDF777F80CB010BD000078
:103A700000080040FC03002010B58EB0002407941D
:103A8000089409940A940B941C2168460C94FCF742
:103A9000E1FB2B48294901605321C0E9011440F2A0
:103AA000E731C0E9031480218161FEF721FB08B1F1
:103AB000FDF752F84FF48050079007A92048FEF711
:103AC000F3FB08B1FDF748F81D48FEF766FF08B1A3
:103AD000FDF742F80B940BA919480C94FEF7C0FAB5
:103AE00008B1FDF739F86020CDE900040294002206
:103AF000694613480494FEF7EAFE08B1FDF72CF876
:103B0000042269460E48FEF7E2FE08B1FDF724F8EC
:103B1000082269460A48FEF7DAFE08B1FDF71CF8EC
:103B20000C2269460648FEF7D2FE08B1FDF714F8EC
:103B30000348FEF745FE0EB010BD0000000C00402B
:103B40004404002010B596B000240F9410941194F2
:103B5000129413941C2168461494FCF77BFB2021DB
:103B600007A8FCF777FB3548334901600121C0E91C
:103B7000011441F26701C0E903148021C0E9054145
:103B8000FEF7B6FA08B1FCF7E7FF4FF480500F904C
:103B90000FA92A48FEF788FB08B1FCF7DDFF27488C
:103BA000FEF7FBFE08B1FCF7D7FF139413A92348D7
:103BB0001494FEF755FA08B1FCF7CEFF6020CDE96A
:103BC00000040294039404940594002269461B485F
:103BD0000694FEF77CFE08B1FCF7BEFF042269469E
:103BE0001648FEF774FE08B1FCF7B6FF08226946D6
:103BF0001248FEF76CFE08B1FCF7AEFF0C226946D6
:103C00000E48FEF764FE08B1FCF7A6FF079408947F
:103C100009944FF400500A94CDE90B4007A90748D6
:103C20000E94FEF7F3F908B1FCF796FF0348FEF790
:103C3000C7FD16B010BD0000000401408C04002038
:103C400010B58CB000240794089409941C21684690
:103C50000A94FCF7FFFA1D481B49C0E900144FF60F
:103C6000FF71C0E9024104618461FEF741FA08B1C5
:103C7000FCF772FF4FF48050079007A91348FEF736
:103C800013FB08B1FCF768FF1048FEF786FE08B189
:103C9000FCF762FF6020CDE900040294002269462F
:103CA0000A480494FEF713FE08B1FCF755FF0422FE
:103CB00069460648FEF70BFE08B1FCF74DFF0348C6
:103CC000FEF77EFD0CB010BD00400140D404002082
:103CD0000C4810B50A4901604FF4E1314160002100
:103CE00081600C22C160C0E904128161C161FFF7EB
:103CF0006FF8002803D0BDE81040FCF72DBF10BDC1
:103D0000004C0040F40500200C4810B50A49016041
:103D10004FF4E1314160002181600C22C160C0E9B3
:103D200004128161C161FFF753F8002803D0BDE898
:103D30001040FCF711BF10BD005000403C060020B1
:103D40000C4810B50A4901604FF4E131416000218F
:103D500081600C22C160C0E904128161C161FFF77A
:103D600037F8002803D0BDE81040FCF7F5BE10BDC1
:103D700000100140840600200C4810B50A4901607B
:103D80004FF4E1314160002181600C22C160C0E943
:103D900004128161C161FFF71BF8002803D0BDE860
:103DA0001040FCF7D9BE10BD00440040CC060020F6
:103DB0000C4810B50A4901604FF4E131416000211F
:103DC00081600C22C160C0E904128161C161FEF70B
:103DD000FFFF002803D0BDE81040FCF7BDBE10BDBA
:103DE0000048004014070020FEE7000070B50B4EAD
:103DF000002400BF04EBC40006EBC0053C21286B87
:103E0000FEF7EAFBD5E90101FEF7F6FDE96868680F
:103E1000FEF7F2FD641C042CECDB70BD54000020A6
:103E200080ED070A70470000074810B590ED010AC1
:103E30000648FFF7F5FF0548BDE810409FED040A6E
:103E40009038FFF7EDBF0000940100202C01002006
:103E50000000C8C2B5EEC00A30B4F1EE10FA01DDC0
:103E6000012400E0002442683121B0EEC00A12684B
:103E7000D162DFED350AB5EEC00A4268F1EE10FA04
:103E8000D16002D29FED310A06E010EE101A304ADE
:103E9000914201DDB0EE600A41680A68D16A80EEA5
:103EA000201A491C00EE101A0023002CB8EE400A1C
:103EB000846821EE000ABCEEC00A10EE101A1FD072
:103EC00074B1042C0ED0082C0ED01364C2686AB1F1
:103ED000042A0FD0082A426812680FD011641EE02D
:103EE0005363F3E79363F1E7D363EFE74268126844
:103EF000516314E042681268916310E0D1630EE0F0
:103F000094B1042C12D0082C12D01164C16889B16C
:103F1000042913D008294168096813D00B6440684C
:103F200030BC0121FEF79FBB5163EFE79163EDE7E2
:103F3000D163EBE7416809684B63F0E741680968C2
:103F40008B63ECE7CB63EAE70000C84200000000A7
:103F50000000C842FEE710B5AE2000F011F92020A5
:103F600000F00EF9102000F00BF9B02000F008F975
:103F7000C82000F005F9002000F002F9102000F040
:103F8000FFF8402000F0FCF8812000F0F9F8DF2075
:103F900000F0F6F8A12000F0F3F8A62000F0F0F809
:103FA000A82000F0EDF83F2000F0EAF8A42000F08F
:103FB000E7F8D32000F0E4F8002000F0E1F8D52085
:103FC00000F0DEF8F02000F0DBF8D92000F0D8F89F
:103FD000222000F0D5F8DA2000F0D2F8122000F00C
:103FE000CFF8DB2000F0CCF8202000F0C9F88D20BD
:103FF00000F0C6F8142000F0C3F800F007F800F055
:1040000087F9BDE81040AF2000F0BAB84FF48061E6
:104010000148FCF71FB900008D0800203CB51C7852
:10402000059DCDE900455D68E41D5B78E408203A14
:1040300014FB02F203FB025200F002F93CBD000047
:104040002DE9FF4107461C4615460E4610EE100AA4
:10405000FCF731FA41EC100B07A153EC102B01A82F
:1040600000F032FF2B4601AA31463846009400F09A
:104070001DF8BDE8FF810000252E3266000000001B
:104080002DE9FF410E4607461D4607A101A80A9CDF
:1040900000F01AFF2B4601AA31463846009400F082
:1040A00005F8BDE8FF810000256400002DE9FF4F01
:1040B00018780025C01DC108587883B01C461746E3
:1040C00011FB00F0001D00F0FF0A2AE0781981467C
:1040D00000F0E0FE5FEA000826D000260AE06168F2
:1040E00016FB0A1B484642465946FCF7BEF8F0B19B
:1040F000761CF6B2207AB042F1D810980090E368AE
:10410000B8F1010F20D0DDE903012022FFF786FF7F
:10411000E068417803980844C0B2039005EB0800BA
:1041200085B2785D0028D1D107B0BDE8F08F109935
:104130002078CDE900016378DDE903010BF1040289
:1041400000F07EF86178E5E77A5DDDE90301FFF7CD
:1041500065FFE0686D1CADB2417803980844C0B2B9
:104160000390DEE708B54FF0FF3200920B4602469F
:1041700078210248FDF77AFA08BD000024020020E9
:104180000249487002210148FFF7ECBF820100207C
:104190002DE9FC4180460720CDE9000301F007042A
:1041A000CD08164602FA04F01F46C2B22346414625
:1041B000284600F089F8002C0CD0601EC0B2CDE972
:1041C0000007C4F1080026FA00F2681C00234146EB
:1041D00000F07AF8BDE8FC812DE9FC4301F0070608
:1041E0001446CD089846814601F0070106EB080207
:1041F00004FA01F0099F082A16D90721CDE9001712
:10420000C2B233464946284600F05EF808EB060085
:104210000938C0B2CDE90007C6F1080024FA00F25F
:10422000681C0023494607E0521ED1B2CDE90017B1
:10423000C2B233464946284600F046F8BDE8FC8342
:104240002DE9FF4F82B01C460F989346C60800F038
:10425000070088460027019018E0029800250BEB24
:10426000070A00EB07090DE015FB04F111F80A201D
:1042700008EBC500C1B209F0FF00109BFFF788FFF3
:104280006D1CEDB2B542EFD37F1CFFB2A742E4D361
:104290000198002815D004FB06F7002508EBC60698
:1042A0000DE010980090791902981BF8012028441D
:1042B000F1B2C0B2019BFFF78FFF6D1CEDB2A542BA
:1042C000EFD306B0BDE8F08FF0B50828DDE905644E
:1042D00019D2802917D20CB1D243D2B2FF25761C55
:1042E00005FA06F6C3F10803084F46EA0204DD406A
:1042F00007EBC017044B785CB2432C43AA43204021
:104300001A7010437854F0BD800100208D08002001
:1043100070B5104D40200024287005F1810600BFC3
:1043200004F1B000C0B2FFF72BFF0020FFF728FF19
:104330001020FFF725FF06EBC4118022681CFBF755
:1043400070FF81210348FFF70DFF641CE4B2082CC5
:10435000E6D370BD0C080020F8B5FDF7BDF82D4D73
:10436000A968401A022853D3FDF7B6F80024A860C4
:10437000294B2AA2214620460094FFF797FE264BA0
:1043800027A2102100200094FFF790FE224B25A2C7
:10439000202100200094FFF789FE1F4B22A230212C
:1043A00000200094FFF782FE1B4B20A2402100203A
:1043B0000094FFF77BFE05F11406002396ED000A3A
:1043C000154A19461E20FFF73BFE96ED010A002311
:1043D000114A10211E20FFF733FE154800230E4A14
:1043E00090ED3D0A20211E20FFF72AFE00940A4B83
:1043F0002A7830211E20FFF743FE0094064B6A788E
:1044000040211E20FFF73CFEBDE8F840FFF780BFCB
:10441000F8BD000094010020906000084B5000009F
:104420004B49000053500000494E00004D4F000022
:104430005400002010B504462DED068BF0EE408AA6
:1044400038EEE08A90ED000AD0ED070A9FED3E9A23
:1044500060EE089AB0EEC80AB4EEE00AF1EE10FA87
:1044600002DD84ED039A0FE094ED030A94ED04AAB3
:1044700030EE080AF1EE4A0A00F060FDF0EE4A0A5A
:1044800000F080FD84ED030A94ED010AD4ED030AE7
:1044900094ED091AD4ED081A60EE200A38EE411A9C
:1044A00094ED020AB7EE002A79EEA00A20EE011A76
:1044B00094ED0A0AF5EEC08A21EE800A72EE611AC6
:1044C00001EE810A84ED0A0A30EE800A84ED098A41
:1044D000F1EE10FA01D1B0EE490A9FED1C8BB5EE5A
:1044E000C00AF1EE10FA08DD10EE100AFBF7E3FF48
:1044F00053EC182BFBF7C6FE0CE0B5EEC00AF1EE4C
:1045000010FA0BD210EE100AFBF7D5FF53EC182B64
:10451000FBF759FFFBF7E2FF00EE100AD4ED050AA6
:10452000B0EEC01AB4EEE01AF1EE10FA06DDB5EE08
:10453000C00AF1EE10FA04D0B0EE600ABDEC068BB2
:1045400010BDB1EE600AF9E70000000033333333E9
:1045500033F34A4070477047FDF774B930B593B0F4
:1045600030216846FBF776FE14210CA8FBF772FE9B
:104570001E480025016841F080510160006800F08C
:10458000805011901A48016841F480410160006830
:10459000022400F48040119001200090000401905A
:1045A0008001CDE90640192008904FF4A870CDE9AC
:1045B000090404200B906846FDF7CAFA08B172B6E8
:1045C000FEE70CA90F2081E831004FF4A0500F90B6
:1045D0004FF48050109005210CA8FDF7CDF900286C
:1045E00001D072B6FEE713B030BD00004038024083
:1045F000007000400248016841F47001016070479A
:1046000088ED00E010B50448FEF741F8BDE8104021
:104610000248FEF73CB8000024030020D404002028
:104620000148FEF734B80000240300200148FEF7DB
:104630002EB800002403002010B50448FEF727F828
:10464000BDE810400248FEF722B800002403002015
:104650001C0500200148FEF71AB800006C0300207A
:104660000148FEF714B80000B40300200148FEF72B
:104670000EB80000FC03002010B50448FEF707F850
:10468000BDE810400248FEF702B800008C0400208C
:10469000AC050020F0B50268294C2A4D2A4E2B4F5C
:1046A0002B4B4FF0804CA04209D0604507D0A84268
:1046B00005D0B04203D0B84201D0984204D122F0D4
:1046C000700E4A6842EA0E02A0421BD0604519D023
:1046D000A84217D0B04215D0B84213D0984211D09A
:1046E0001C4DA8420ED01C4DA8420BD01B4DA84219
:1046F00008D01B4DA84205D01A4DA84202D01A4D31
:10470000A84203D122F44075CA682A434D6922F0B9
:1047100080022A4302608A68C2620A688262A042FA
:1047200001D0984201D10969016301214161016908
:10473000C90703D0016921F001010161F0BD00004A
:10474000000001400004004000080040000C004050
:104750000004014000400140004401400048014085
:1047600000180040001C00400020004010B501F07F
:104770001F030121046A99408C430462016A9A4034
:104780001143016210BD10B5846842EA032224F48B
:104790007F440A432243826010BD826822F0700287
:1047A0000A4342F00701816070470000F0B5036AD8
:1047B000026A22F00102026242688469124E24F009
:1047C00073050C682C4323F002058B682B430D4DB9
:1047D000A84201D0B04205D123F00807CB683B4383
:1047E00023F00403A84201D0B04205D14D6922F460
:1047F000407215438A692A43426084614968416373
:104800000362F0BD0000014000040140F0B5026AFF
:10481000036A23F010030362436884690D6824F47B
:10482000E64444EA05248D6822F0200242EA05129B
:104830000F4D104EA84201D0B04206D1CF6822F0F1
:10484000800242EA071222F04002A84201D0B042A0
:1048500007D14D6923F4406343EA85038D6943EA38
:10486000850343608461496881630262F0BD000092
:104870000000014000040140F0B5026A036A23F41D
:10488000807303624368C46922F4007224F07305E4
:104890000C68124E2C438D6842EA05220E4DA84248
:1048A00001D0B04206D1CF6822F4006242EA07226A
:1048B00022F48062A84201D0B04207D14D6923F4AE
:1048C000405343EA05138D6943EA05134360C4610D
:1048D0004968C1630262F0BD00000140000401406C
:1048E00030B5046A026A22F4805202624268C369E7
:1048F0000D6823F4E64343EA05238D6824F400544D
:1049000044EA0534084DA84202D0084DA84204D11B
:104910004D6922F4804242EA85124260C3614968CF
:104920000164046230BD0000000001400004014049
:1049300010B5036A046A24F001040462846924F057
:10494000F00444EA021423F00A020A43846102627A
:1049500010BD10B5036A046A24F01004046284696F
:1049600023F0A00324F4704444EA023243EA011124
:104970008261016210BD00000A48FDF755FCFFF797
:1049800035FAFFF7E8FAFEF72BFDFFF73FFB00BF14
:10499000FFF7E2FCFEF770FDFFF746FA00F028FA99
:1049A000F6E70000AC05002010B5806B0021C18542
:1049B000C184FEF7D3F810BD70B5846B20684069E0
:1049C00094F84110C0F3C0100025212904D118B17A
:1049D000E584204600F08EF82068406994F8421083
:1049E000C0F38010222904D118B1E585204600F0DB
:1049F0005AF8606C40F0100060642046FEF7AEF894
:104A000070BD10B50146806B096809684FF000025F
:104A1000C9052ED4C28501680C3151E8003F23F44A
:104A2000807341E80034002CF5D10168143151E85D
:104A3000003F23F0010341E80034002CF5D1016868
:104A4000143151E8003F23F0400341E80034002CCA
:104A5000F5D1202180F84210016B012909D10168AC
:104A60000C3151E8003F23F0100341E80034002CE2
:104A7000F5D14263016B012902D0FEF7E3FA10BDC4
:104A8000818DFEF76AF810BD10B5806B012141637E
:104A9000016B012902D0FEF7EDFA10BD818D4908A6
:104AA000FEF75BF810BD01680C3151E8002F22F4CD
:104AB000907241E80023002BF5D10168143151E8D0
:104AC000002F22F0010241E80023002BF5D1016BF9
:104AD000012909D101680C3151E8002F22F01002A0
:104AE00041E80023002BF5D1202180F8421000215D
:104AF0000163704701680C3151E8002F22F0C002B9
:104B000041E80023002BF5D1202180F841107047A7
:104B100008B590F84210222901D0022008BD826811
:104B20004FF480539A4201D1016921B1816A9A42BE
:104B30001BD04AB10AE00268816A5268C2F30802D7
:104B40000A80816A891C08E0026972B102685268B1
:104B500002F07F020A70816A491C8162C18D491E80
:104B60000904090CC18503D01BE002685268F1E713
:104B70000168CA6822F02002CA600168CA6822F48B
:104B80008072CA6001684A6922F001024A612021EC
:104B900080F8421000214163026B012A03D0FEF726
:104BA00051FA002008BD016301680C3151E8002F63
:104BB00022F0100241E80023002BF5D101680A68B9
:104BC000D20602D50A6849680091818DFDF7C5FFBC
:104BD000E7E7000070B5044600680169E26821F467
:104BE0004051114301612169A068E269084361698C
:104BF000114308432168CA6849F20C639A4302438F
:104C0000CA6020684169A26921F440711143416181
:104C100031492068884202D03049884202D1FCF7ED
:104C200055FF01E0FCF742FFE269002319216425EA
:104C30003226B2F5004F626828D0A0FB0101930F25
:104C40009200FBF7BDFA0146B0FBF5F06FF01802D9
:104C5000504301EB800006EB0010B0FBF5F000F0D4
:104C6000F002B1FBF5F002EB0012B1FBF5F06FF0D2
:104C70001803584301EB800006EB0010B0FBF5F081
:104C800000F00F0021681044886070BDA0FB010196
:104C900092185B41FBF794FA0146B0FBF5F0020174
:104CA000B1FBF5F06FF01803584301EB800006EB01
:104CB000C000B0FBF5F000F0F80002EB4002B1FBE1
:104CC000F5F0584301EB800006EBC000B0FBF5F0B7
:104CD00000F00700D6E7000000100140001401407A
:104CE00038B5816204468285002013466064222222
:104CF00084F84220E56B1B4AEA63E56B1A4A2A6492
:104D0000E56B1A4AEA64E26B10650A462168E06BBB
:104D1000091DFCF79FFA206801684068009020692F
:104D200048B120680C3050E8001F41F4807140E821
:104D30000012002AF5D12068143050E8001F41F01D
:104D4000010140E80012002AF5D12068143050E833
:104D5000001F41F0400140E80012002AF5D1002078
:104D600038BD0000034A0008894A0008B949000814
:104D70002DE9F843984617460D460446089E24E060
:104D8000701C22D0FCF7A8FBA0EB0800B0421AD898
:104D9000CEB12068C168490717D5802D15D0402DA8
:104DA00013D00168C94309070FD401680025406882
:104DB00000902046FFF777FE0820606484F840509A
:104DC0000120BDE8F8830320FBE72068006835EA8E
:104DD000000004D00020B842D2D00020F1E701202A
:104DE000F9E700000148FDF7BBBE000014070020F2
:104DF0002DE9FF41FCF770FB124C2169401A502845
:104E00001DD3FCF769FBDFF840802061D8F814015E
:104E1000FBF751FB06460F46D8F8F400FBF74BFBB7
:104E200004460D46D8F8F800FBF745FB8DE8F00086
:104E300041EC100B05A053EC102B00F015F8BDE869
:104E4000FF8100009401002054000020737065650C
:104E5000643A25662C4F55543A25662C25662C0D50
:104E60000A000000FEE700000FB4642110B503AB98
:104E70000648029A00F03CF882B24FF0FF33034933
:104E80000348FEF7F8F810BC5DF814FB980C0020FE
:104E9000840600200078010601D401207047062115
:104EA000B1EB501F01D1022070470E21B1EB101F52
:104EB00001D1032070471E21B1EBD00F01D1042096
:104EC00070470020704700000FB4084B10B504A9CC
:104ED00002AA039800F04CF9044602A9002000F051
:104EE000E9FC204610BC5DF814FB0000B558000832
:104EF0007CB5044600201D46164600290BD0491EED
:104F0000CDE90041044B6A462946304600F030F9AD
:104F1000009A002111707CBD9F5800080907090EF6
:104F2000002804DB00F1E02080F80014704700F056
:104F30000F0000F1E02080F8141D704710B52DED32
:104F4000028BB0EE608AF0EE408A18EE101A18EE6E
:104F5000900AFBF759FC00F07040B0F1005F0CD0F4
:104F600018EE100A20F00040C0F1FF40C00F02BF51
:104F7000B0EE480ABDEC028B10BDB0EE680ABDEC85
:104F8000028B10BD10B52DED028BB0EE608AF0EEF5
:104F9000408A18EE101A18EE900AFBF735FC00F064
:104FA0007040B0F1004F0CD018EE100A20F0004015
:104FB000C0F1FF40C00F02BFB0EE480ABDEC028B4B
:104FC00010BDB0EE680ABDEC028B10BD02E008C84F
:104FD000121F08C1002AFAD170477047002001E073
:104FE00001C1121F002AFBD1704700002DE9FF5FAD
:104FF00082B00021DDE90430020DDDF840B003434A
:1050000018D044F61050A2F2FF3242431514119802
:1050100001281FD0A5EB0B00401C5FEA000A4FF0EF
:1050200000064E4FDFF83891B046504615D5CAF10C
:10503000000413E0119801244AA3012801D16FEA6A
:105040000B010298119AC0E90031C0E9024206B092
:10505000BDE8F09FCBF10000DFE704460021404AA5
:10506000491842EB0450CDE9001012E0E00707D0E8
:1050700032463B4640464946FBF7ABF980468946F7
:1050800032463B4610461946FBF7A3F906460F4643
:105090006410002CEAD1DDE90401DDE90023BAF156
:1050A000000F06DAFBF795F942464B46FBF791F9FC
:1050B00005E0FBF70AFB42464B46FBF706FB0446BE
:1050C0000E460022284BFBF787FB03D84FF0FF303A
:1050D000014607E00022254B20463146FBF7D2F877
:1050E000FBF762FB102409E0002C0ADB0A220023F4
:1050F000FBF766F8039B30321A55641E50EA010232
:10510000F2D1641C039AC4F111031444119A012AC8
:1051100003D0012208430DD10AE0084304D0002047
:105120004FF0110B119072E7A3EB0B056D1E0DE014
:105130005B4504DD4FF0000205F1010504E003DAF0
:105140004FF00002A5F10105002AECD00298119958
:10515000C0E90231C0E9004579E7000000001440D1
:105160000000F03F300000000000F0430000E03F8E
:105170002DE9FF4F95B09B468946064600250FE274
:10518000252877D100242746F84A0121059400E01C
:10519000044316F8013F203B01FA03F01042F7D117
:1051A00030782A2811D06FF02F033078A0F1300228
:1051B000092A16D8059A44F0020402EB820203EB96
:1051C00042021044761C0590EFE759F8042B059233
:1051D000002A03DA504244F40054059044F00204DB
:1051E000761C30782E2816D116F8010F44F00404EE
:1051F0002A280DD06FF02F023078A0F13003092B50
:1052000009D807EB870302EB4303C718761CF3E7C3
:1052100059F8047B761C30786C280FD006DC4C28BB
:1052200017D068280DD06A2814D104E0742810D053
:105230007A280FD10DE044F400140AE044F48014FD
:1052400001E044F440147278824202D104F58014E3
:10525000761C761C307866280BD013DC582877D063
:1052600009DC002875D04528F6D04628F4D0472818
:105270001AD19DE118E0632835D0642879D06528DB
:1052800012D195E1702873D008DC6728F1D0692825
:105290006FD06E280DD06F2806D1B5E073282CD0C2
:1052A000752875D0782874D05A46179990476D1C88
:1052B00075E1C4F30250022809D003280DD0D9F8B3
:1052C000001004280DD00D6009F1040967E1D9F838
:1052D0000010EA17C1E90052F6E7D9F800100D8076
:1052E000F2E70D70F0E719F8041B8DF800100020AC
:1052F0008DF80100EA46012003E059F804AB4FF0B5
:10530000FF3061074FF0000102D40DE008F1010108
:105310008846B9420FDA8045F8DB1AF808100029F0
:10532000F4D108E008F1010188468142FADB1AF85D
:1053300008100029F6D105985B46A0EB0807214626
:105340003846179A00F094FA284400EB080507E065
:105350004DE029E10DE01AF8010B5A4617999047E4
:10536000B8F10108F7D25B4621463846179A13E197
:1053700042E00A220092C4F302524FF0000A022ACD
:1053800008D059F804CB032A4FEAEC710AD00DE09B
:1053900029E02AE009F1070121F00702F2E802C141
:1053A000914609E00FFA8CFC4FEAEC71042A03D114
:1053B0004FFA8CFC4FEAEC71002907DA0A4600210B
:1053C000DCF1000C61EB02012D2202E0220504D584
:1053D0002B228DF80420012203E0E20701D02022D5
:1053E000F7E7904659E00A2102E010220DE0102173
:1053F0004FF0000A00910BE010224FF0000A44F039
:1054000004040827009203E008224FF0000A0092EB
:10541000C4F30252022A05D059F804CB0021032A12
:1054200008D009E009F1070121F00702F2E802C102
:10543000914605E01FFA8CFC042A01D10CF0FF0C08
:105440004FF00008220728D5702806D0009B83F073
:10545000100353EA0A0305D00EE040228DF8042021
:10546000012208E05CEA010206D030228DF8042017
:105470008DF8050002229046009B83F0080353EA52
:105480000A030AD15CEA010201D1620705D5302284
:105490008DF804204FF001087F1E582804D034A056
:1054A00003900EA802900DE036A0F9E7534660463F
:1054B000009AFAF785FE84460398825C0298401EA3
:1054C000029002705CEA0100F0D1029806A9081A65
:1054D00000F1200A600702D524F4803400E001279F
:1054E000574502DDA7EB0A0000E0002000EB0A01AF
:1054F000009005984144401A0590E00306D45B46AD
:105500002146179A059800F0B3F90544002706E0F4
:1055100001A85A46C05D179990476D1C7F1C4745EE
:10552000F6DBE0030CD55B462146179A059800F0A0
:105530009FF9054404E030205A46179990476D1CA6
:105540000099481E00900029F5DC08E002980299B5
:105550005A460078491C0291179990476D1CBAF180
:105560000001AAF1010AF1DC65E10000092801004F
:1055700030313233343536373839616263646566C9
:10558000000000003031323334353637383941428B
:10559000434445460000000000F058F90544761CDD
:1055A000307800287FF4ECAD19B02846BDE8F08FC4
:1055B000620700D4062709F1070222F0070CFCE875
:1055C0000223E14603F000485FEA080C02D00FF224
:1055D000702C0DE05FEA045C02D50FF2682C07E046
:1055E0005FEAC47C02D00FF2602C01E0AFF2700CD5
:1055F0004FF0FF3823F00043CDF850C065280CD0A1
:1056000006DC452809D046281DD047283DD13DE07D
:10561000662818D067287ED138E00021112F01DBE1
:10562000112000E0781CCDE9000106A90EA8FFF7C3
:10563000DDFCDDE90F010E9A03910021009207F1D4
:10564000010A04914DE04FF000400097CDE90110B0
:1056500006A90EA8FFF7CAFCDDE90F0203920E9B14
:1056600011990022DDF80CA00093049211B9791C65
:1056700000EB010AB7EB0A0004D4C0F1FF3007F1D8
:10568000010A0490AAEB0700019044E0012F00DA20
:1056900001270021112F01DD112000E03846CDE95E
:1056A000000106A90EA8FFF7A1FCDDE90F010E9A83
:1056B0000391002104910092BA4621070CD403996A
:1056C000514500DA8A46BAF1010F05DD009AAAF1C8
:1056D0000101515C302908D0B84202DA10F1040F00
:1056E00006DA0121CDE9011015E0AAF10101E9E78F
:1056F000002805DC049901440491AAEB000102E0B2
:10570000411C514500DD8A460499401A401C019015
:105710004FF000400290200704D40198504501DB6F
:10572000CDF8048000208DF84F0002980DF14F074E
:10573000B0F1004F25D02B200E9002984FF00208B8
:1057400000280CDA404202902D200E9007E00A213A
:105750000298FAF7DFFE3031029007F8011DB8F128
:105760000001A8F10108F2DC02980028EFD1791EAF
:105770000E980870307800F0200040F0450007F8DF
:10578000020D12A8C01B00F107081498007800B1A0
:10579000012000EB0A01019801EBE07105984144FA
:1057A000401A401E0590E00306D45B462146179A36
:1057B000059800F05DF805441498007818B15A4631
:1057C000179990476D1CE00324D55B462146179A34
:1057D000059800F04DF805441CE00498002807DB0C
:1057E000DDE90301884203DD0098405C179901E080
:1057F000179930205A469047049805F10105401C3E
:1058000004900198401E019004D12E205A46179909
:1058100090476D1CBAF10001AAF1010ADDDC05E038
:1058200017F8010B5A46179990476D1CB8F1000103
:10583000A8F10108F4DC5B462146179A0598ABE60F
:105840002D0000002B000000200000002DE9F04199
:10585000044600251E461746880404D405E0394650
:105860002020B0476D1C641EF9D52846BDE8F081A4
:105870002DE9F041044600251E469046C80301D597
:10588000302700E02027880404D505E0414638464B
:10589000B0476D1C641EF9D52846BDE8F0814A6802
:1058A000002A06D00A68531C0B6010704868401E1E
:1058B000486070470A68531C0B6010707047000006
:1058C0002B4910B50C7800232A4AE4B30C78012C3C
:1058D00046D00C78022C4AD14C781055641CE0B2AA
:1058E00048700B2843D10020145C401C2344C0B2F4
:1058F000DBB20A28F8D3907A984229D1B2F9020093
:1059000000EE100AF8EEC00A9FED1B0A20EE801A86
:10591000DFED1A0A21EE201A81ED011AB2F9040016
:1059200001EE100AB8EEC11A21EE001A21EE201A7B
:1059300081ED021AB2F9060001EE100AB8EEC11AA2
:1059400021EE000A00E005E020EE200A81ED030AC6
:1059500000200AE055280AD14B78D054012004E0F9
:10596000532804D14B78D05402200870487010BDE1
:10597000840100208D0C002000000038000034431A
:10598000FBF768FFFEF7EAFDFDF732FEFDF71AFEB2
:10599000FDF7C8FDFDF7F8FDFDF7A0FEFDF7BEFE23
:1059A000FDF7DCFEFDF792FFFDF7C6FFFDF7F8FF00
:1059B000FEF72CF8FEF760F8FEF742F9FDF722FF3C
:1059C000FEF7A2F9FEF7BCF9FEF7D6F9FEF7F0F9FB
:1059D000FEF7B8F8FEF77CF9FDF7E2FEFDF75AFF97
:1059E000FEF7CAFFFEE700061016000610160000BC
:1059F000000000000000010203040607080900007F
:105A0000000001020304000000000000000000008C
:105A1000000000000000000000F80000000000008E
:105A200000333000000000100C06100C06000000CF
:105A300000000000000040C07840C0784000043FF3
:105A400004043F040400007088FC083000000018C3
:105A500020FF211E0000F008F000E01800000021E7
:105A60001C031E211E0000F00888700000001E218B
:105A700023241927211010160E000000000000003A
:105A8000000000000000000000E018040200000018
:105A900000071820400000020418E0000000004049
:105AA000201807000000404080F0804040000202C3
:105AB000010F01020200000000F0000000000101DF
:105AC000011F01010100000000000000000080B083
:105AD0007000000000000000000000000000000155
